{
  "_format": "hh-sol-artifact-1",
  "contractName": "AMM",
  "sourceName": "contracts/AMM.sol",
  "abi": [
    {
      "inputs": [
        {
          "internalType": "address",
          "name": "_tokenOne",
          "type": "address"
        },
        {
          "internalType": "address",
          "name": "_tokenTwo",
          "type": "address"
        }
      ],
      "stateMutability": "nonpayable",
      "type": "constructor"
    },
    {
      "inputs": [
        {
          "internalType": "uint256",
          "name": "_amountOne",
          "type": "uint256"
        },
        {
          "internalType": "uint256",
          "name": "_amountTwo",
          "type": "uint256"
        }
      ],
      "name": "addLiquidity",
      "outputs": [
        {
          "internalType": "uint256",
          "name": "shares",
          "type": "uint256"
        }
      ],
      "stateMutability": "nonpayable",
      "type": "function"
    },
    {
      "inputs": [
        {
          "internalType": "address",
          "name": "",
          "type": "address"
        }
      ],
      "name": "balanceOf",
      "outputs": [
        {
          "internalType": "uint256",
          "name": "",
          "type": "uint256"
        }
      ],
      "stateMutability": "view",
      "type": "function"
    },
    {
      "inputs": [
        {
          "internalType": "address",
          "name": "_tokenIn",
          "type": "address"
        },
        {
          "internalType": "uint256",
          "name": "_amountIn",
          "type": "uint256"
        }
      ],
      "name": "calculateSwap",
      "outputs": [
        {
          "internalType": "uint256",
          "name": "amountOut",
          "type": "uint256"
        }
      ],
      "stateMutability": "view",
      "type": "function"
    },
    {
      "inputs": [
        {
          "internalType": "uint256",
          "name": "_shares",
          "type": "uint256"
        }
      ],
      "name": "removeLiquidity",
      "outputs": [
        {
          "internalType": "uint256",
          "name": "amountOne",
          "type": "uint256"
        },
        {
          "internalType": "uint256",
          "name": "amountTwo",
          "type": "uint256"
        }
      ],
      "stateMutability": "nonpayable",
      "type": "function"
    },
    {
      "inputs": [],
      "name": "reserveOne",
      "outputs": [
        {
          "internalType": "uint256",
          "name": "",
          "type": "uint256"
        }
      ],
      "stateMutability": "view",
      "type": "function"
    },
    {
      "inputs": [],
      "name": "reserveTwo",
      "outputs": [
        {
          "internalType": "uint256",
          "name": "",
          "type": "uint256"
        }
      ],
      "stateMutability": "view",
      "type": "function"
    },
    {
      "inputs": [
        {
          "internalType": "address",
          "name": "_tokenIn",
          "type": "address"
        },
        {
          "internalType": "uint256",
          "name": "_amountIn",
          "type": "uint256"
        }
      ],
      "name": "swap",
      "outputs": [
        {
          "internalType": "uint256",
          "name": "amountOut",
          "type": "uint256"
        }
      ],
      "stateMutability": "nonpayable",
      "type": "function"
    },
    {
      "inputs": [],
      "name": "tokenOne",
      "outputs": [
        {
          "internalType": "contract IERC20",
          "name": "",
          "type": "address"
        }
      ],
      "stateMutability": "view",
      "type": "function"
    },
    {
      "inputs": [],
      "name": "tokenTwo",
      "outputs": [
        {
          "internalType": "contract IERC20",
          "name": "",
          "type": "address"
        }
      ],
      "stateMutability": "view",
      "type": "function"
    },
    {
      "inputs": [],
      "name": "totalSupply",
      "outputs": [
        {
          "internalType": "uint256",
          "name": "",
          "type": "uint256"
        }
      ],
      "stateMutability": "view",
      "type": "function"
    }
  ],
  "bytecode": "0x60c06040523480156200001157600080fd5b50604051620019d6380380620019d6833981810160405281019062000037919062000111565b8173ffffffffffffffffffffffffffffffffffffffff1660808173ffffffffffffffffffffffffffffffffffffffff16815250508073ffffffffffffffffffffffffffffffffffffffff1660a08173ffffffffffffffffffffffffffffffffffffffff1681525050505062000158565b600080fd5b600073ffffffffffffffffffffffffffffffffffffffff82169050919050565b6000620000d982620000ac565b9050919050565b620000eb81620000cc565b8114620000f757600080fd5b50565b6000815190506200010b81620000e0565b92915050565b600080604083850312156200012b576200012a620000a7565b5b60006200013b85828601620000fa565b92505060206200014e85828601620000fa565b9150509250929050565b60805160a0516117cc6200020a60003960008181610289015281816104da015281816106c40152818161080d015281816109fe01528181610b2401528181610c5401528181610cc201528181610ed20152610f7d0152600081816102340152818161035d0152818161043c015281816106250152818161076c0152818161096401528181610aa901528181610acf01528181610bf801528181610c7501528181610ca10152610e3801526117cc6000f3fe608060405234801561001057600080fd5b506004361061009e5760003560e01c80639cd441da116100665780639cd441da14610170578063adc18b50146101a0578063c1e287a9146101be578063d004f0f7146101dc578063e7d189021461020c5761009e565b806318160ddd146100a35780631de8d8cb146100c15780632bd1df84146100f157806370a082311461010f5780639c8f9f231461013f575b600080fd5b6100ab61022a565b6040516100b89190611144565b60405180910390f35b6100db60048036038101906100d691906111ee565b610230565b6040516100e89190611144565b60405180910390f35b6100f9610417565b6040516101069190611144565b60405180910390f35b6101296004803603810190610124919061122e565b61041d565b6040516101369190611144565b60405180910390f35b6101596004803603810190610154919061125b565b610435565b604051610167929190611288565b60405180910390f35b61018a600480360381019061018591906112b1565b610768565b6040516101979190611144565b60405180910390f35b6101a8610aa1565b6040516101b59190611144565b60405180910390f35b6101c6610aa7565b6040516101d39190611350565b60405180910390f35b6101f660048036038101906101f191906111ee565b610acb565b6040516102039190611144565b60405180910390f35b610214610f7b565b6040516102219190611350565b60405180910390f35b60025481565b60007f000000000000000000000000000000000000000000000000000000000000000073ffffffffffffffffffffffffffffffffffffffff168373ffffffffffffffffffffffffffffffffffffffff1614806102d757507f000000000000000000000000000000000000000000000000000000000000000073ffffffffffffffffffffffffffffffffffffffff168373ffffffffffffffffffffffffffffffffffffffff16145b610316576040517f08c379a000000000000000000000000000000000000000000000000000000000815260040161030d906113c8565b60405180910390fd5b60008211610359576040517f08c379a000000000000000000000000000000000000000000000000000000000815260040161035090611434565b60405180910390fd5b60007f000000000000000000000000000000000000000000000000000000000000000073ffffffffffffffffffffffffffffffffffffffff168473ffffffffffffffffffffffffffffffffffffffff16149050600080826103bf576001546000546103c6565b6000546001545b9150915060006103e86103e5876103dd9190611483565b6103e791906114f4565b905080836103f59190611525565b81836104019190611483565b61040b91906114f4565b94505050505092915050565b60015481565b60036020528060005260406000206000915090505481565b60008060007f000000000000000000000000000000000000000000000000000000000000000073ffffffffffffffffffffffffffffffffffffffff166370a08231306040518263ffffffff1660e01b81526004016104939190611568565b602060405180830381865afa1580156104b0573d6000803e3d6000fd5b505050506040513d601f19601f820116820180604052508101906104d49190611598565b905060007f000000000000000000000000000000000000000000000000000000000000000073ffffffffffffffffffffffffffffffffffffffff166370a08231306040518263ffffffff1660e01b81526004016105319190611568565b602060405180830381865afa15801561054e573d6000803e3d6000fd5b505050506040513d601f19601f820116820180604052508101906105729190611598565b905060025482866105839190611483565b61058d91906114f4565b9350600254818661059e9190611483565b6105a891906114f4565b92506000841180156105ba5750600083115b6105f9576040517f08c379a00000000000000000000000000000000000000000000000000000000081526004016105f090611611565b60405180910390fd5b6106033386610f9f565b61062384836106129190611631565b848361061e9190611631565b611012565b7f000000000000000000000000000000000000000000000000000000000000000073ffffffffffffffffffffffffffffffffffffffff1663a9059cbb33866040518363ffffffff1660e01b815260040161067e929190611665565b6020604051808303816000875af115801561069d573d6000803e3d6000fd5b505050506040513d601f19601f820116820180604052508101906106c191906116c6565b507f000000000000000000000000000000000000000000000000000000000000000073ffffffffffffffffffffffffffffffffffffffff1663a9059cbb33856040518363ffffffff1660e01b815260040161071d929190611665565b6020604051808303816000875af115801561073c573d6000803e3d6000fd5b505050506040513d601f19601f8201168201806040525081019061076091906116c6565b505050915091565b60007f000000000000000000000000000000000000000000000000000000000000000073ffffffffffffffffffffffffffffffffffffffff166323b872dd3330866040518463ffffffff1660e01b81526004016107c7939291906116f3565b6020604051808303816000875af11580156107e6573d6000803e3d6000fd5b505050506040513d601f19601f8201168201806040525081019061080a91906116c6565b507f000000000000000000000000000000000000000000000000000000000000000073ffffffffffffffffffffffffffffffffffffffff166323b872dd3330856040518463ffffffff1660e01b8152600401610868939291906116f3565b6020604051808303816000875af1158015610887573d6000803e3d6000fd5b505050506040513d601f19601f820116820180604052508101906108ab91906116c6565b506000600254036108d1576108ca82846108c59190611483565b611024565b9050610912565b61090f600054600254856108e59190611483565b6108ef91906114f4565b600154600254856109009190611483565b61090a91906114f4565b61109e565b90505b60008111610955576040517f08c379a000000000000000000000000000000000000000000000000000000000815260040161094c90611776565b60405180910390fd5b61095f33826110b8565b610a9b7f000000000000000000000000000000000000000000000000000000000000000073ffffffffffffffffffffffffffffffffffffffff166370a08231306040518263ffffffff1660e01b81526004016109bb9190611568565b602060405180830381865afa1580156109d8573d6000803e3d6000fd5b505050506040513d601f19601f820116820180604052508101906109fc9190611598565b7f000000000000000000000000000000000000000000000000000000000000000073ffffffffffffffffffffffffffffffffffffffff166370a08231306040518263ffffffff1660e01b8152600401610a559190611568565b602060405180830381865afa158015610a72573d6000803e3d6000fd5b505050506040513d601f19601f82011682018060405250810190610a969190611598565b611012565b92915050565b60005481565b7f000000000000000000000000000000000000000000000000000000000000000081565b60007f000000000000000000000000000000000000000000000000000000000000000073ffffffffffffffffffffffffffffffffffffffff168373ffffffffffffffffffffffffffffffffffffffff161480610b7257507f000000000000000000000000000000000000000000000000000000000000000073ffffffffffffffffffffffffffffffffffffffff168373ffffffffffffffffffffffffffffffffffffffff16145b610bb1576040517f08c379a0000000000000000000000000000000000000000000000000000000008152600401610ba8906113c8565b60405180910390fd5b60008211610bf4576040517f08c379a0000000000000000000000000000000000000000000000000000000008152600401610beb90611434565b60405180910390fd5b60007f000000000000000000000000000000000000000000000000000000000000000073ffffffffffffffffffffffffffffffffffffffff168473ffffffffffffffffffffffffffffffffffffffff1614905060008060008084610c9f577f00000000000000000000000000000000000000000000000000000000000000007f0000000000000000000000000000000000000000000000000000000000000000600154600054610ce8565b7f00000000000000000000000000000000000000000000000000000000000000007f00000000000000000000000000000000000000000000000000000000000000006000546001545b93509350935093508373ffffffffffffffffffffffffffffffffffffffff166323b872dd33308a6040518463ffffffff1660e01b8152600401610d2d939291906116f3565b6020604051808303816000875af1158015610d4c573d6000803e3d6000fd5b505050506040513d601f19601f82011682018060405250810190610d7091906116c6565b5060006103e86103e589610d849190611483565b610d8e91906114f4565b90508083610d9c9190611525565b8183610da89190611483565b610db291906114f4565b96508373ffffffffffffffffffffffffffffffffffffffff1663a9059cbb33896040518363ffffffff1660e01b8152600401610def929190611665565b6020604051808303816000875af1158015610e0e573d6000803e3d6000fd5b505050506040513d601f19601f82011682018060405250810190610e3291906116c6565b50610f6f7f000000000000000000000000000000000000000000000000000000000000000073ffffffffffffffffffffffffffffffffffffffff166370a08231306040518263ffffffff1660e01b8152600401610e8f9190611568565b602060405180830381865afa158015610eac573d6000803e3d6000fd5b505050506040513d601f19601f82011682018060405250810190610ed09190611598565b7f000000000000000000000000000000000000000000000000000000000000000073ffffffffffffffffffffffffffffffffffffffff166370a08231306040518263ffffffff1660e01b8152600401610f299190611568565b602060405180830381865afa158015610f46573d6000803e3d6000fd5b505050506040513d601f19601f82011682018060405250810190610f6a9190611598565b611012565b50505050505092915050565b7f000000000000000000000000000000000000000000000000000000000000000081565b80600360008473ffffffffffffffffffffffffffffffffffffffff1673ffffffffffffffffffffffffffffffffffffffff1681526020019081526020016000206000828254610fee9190611631565b9250508190555080600260008282546110079190611631565b925050819055505050565b81600081905550806001819055505050565b6000600382111561108b578190506000600160028461104391906114f4565b61104d9190611525565b90505b8181101561108557809150600281828561106a91906114f4565b6110749190611525565b61107e91906114f4565b9050611050565b50611099565b6000821461109857600190505b5b919050565b6000818311156110ae57816110b0565b825b905092915050565b80600360008473ffffffffffffffffffffffffffffffffffffffff1673ffffffffffffffffffffffffffffffffffffffff16815260200190815260200160002060008282546111079190611525565b9250508190555080600260008282546111209190611525565b925050819055505050565b6000819050919050565b61113e8161112b565b82525050565b60006020820190506111596000830184611135565b92915050565b600080fd5b600073ffffffffffffffffffffffffffffffffffffffff82169050919050565b600061118f82611164565b9050919050565b61119f81611184565b81146111aa57600080fd5b50565b6000813590506111bc81611196565b92915050565b6111cb8161112b565b81146111d657600080fd5b50565b6000813590506111e8816111c2565b92915050565b600080604083850312156112055761120461115f565b5b6000611213858286016111ad565b9250506020611224858286016111d9565b9150509250929050565b6000602082840312156112445761124361115f565b5b6000611252848285016111ad565b91505092915050565b6000602082840312156112715761127061115f565b5b600061127f848285016111d9565b91505092915050565b600060408201905061129d6000830185611135565b6112aa6020830184611135565b9392505050565b600080604083850312156112c8576112c761115f565b5b60006112d6858286016111d9565b92505060206112e7858286016111d9565b9150509250929050565b6000819050919050565b600061131661131161130c84611164565b6112f1565b611164565b9050919050565b6000611328826112fb565b9050919050565b600061133a8261131d565b9050919050565b61134a8161132f565b82525050565b60006020820190506113656000830184611341565b92915050565b600082825260208201905092915050565b7f696e76616c696420746f6b656e00000000000000000000000000000000000000600082015250565b60006113b2600d8361136b565b91506113bd8261137c565b602082019050919050565b600060208201905081810360008301526113e1816113a5565b9050919050565b7f616d6f756e7420696e203d203000000000000000000000000000000000000000600082015250565b600061141e600d8361136b565b9150611429826113e8565b602082019050919050565b6000602082019050818103600083015261144d81611411565b9050919050565b7f4e487b7100000000000000000000000000000000000000000000000000000000600052601160045260246000fd5b600061148e8261112b565b91506114998361112b565b92508282026114a78161112b565b915082820484148315176114be576114bd611454565b5b5092915050565b7f4e487b7100000000000000000000000000000000000000000000000000000000600052601260045260246000fd5b60006114ff8261112b565b915061150a8361112b565b92508261151a576115196114c5565b5b828204905092915050565b60006115308261112b565b915061153b8361112b565b925082820190508082111561155357611552611454565b5b92915050565b61156281611184565b82525050565b600060208201905061157d6000830184611559565b92915050565b600081519050611592816111c2565b92915050565b6000602082840312156115ae576115ad61115f565b5b60006115bc84828501611583565b91505092915050565b7f616d6f756e744f6e65206f7220616d6f756e7454776f203d2030000000000000600082015250565b60006115fb601a8361136b565b9150611606826115c5565b602082019050919050565b6000602082019050818103600083015261162a816115ee565b9050919050565b600061163c8261112b565b91506116478361112b565b925082820390508181111561165f5761165e611454565b5b92915050565b600060408201905061167a6000830185611559565b6116876020830184611135565b9392505050565b60008115159050919050565b6116a38161168e565b81146116ae57600080fd5b50565b6000815190506116c08161169a565b92915050565b6000602082840312156116dc576116db61115f565b5b60006116ea848285016116b1565b91505092915050565b60006060820190506117086000830186611559565b6117156020830185611559565b6117226040830184611135565b949350505050565b7f736861726573203d203000000000000000000000000000000000000000000000600082015250565b6000611760600a8361136b565b915061176b8261172a565b602082019050919050565b6000602082019050818103600083015261178f81611753565b905091905056fea2646970667358221220d8cf664cc7b690e0e9ba0a12bc4ebe5235c4a5bbcbc8d8a9d0f095b260fd531f64736f6c63430008140033",
  "linkReferences": {},
  "deployedLinkReferences": {}
}