{
  "_format": "hh-sol-artifact-1",
  "contractName": "AMM",
  "sourceName": "contracts/AMM.sol",
  "abi": [
    {
      "inputs": [
        {
          "internalType": "address",
          "name": "_tokenOne",
          "type": "address"
        },
        {
          "internalType": "address",
          "name": "_tokenTwo",
          "type": "address"
        }
      ],
      "stateMutability": "nonpayable",
      "type": "constructor"
    },
    {
      "inputs": [
        {
          "internalType": "uint256",
          "name": "_amountOne",
          "type": "uint256"
        },
        {
          "internalType": "uint256",
          "name": "_amountTwo",
          "type": "uint256"
        }
      ],
      "name": "addLiquidity",
      "outputs": [
        {
          "internalType": "uint256",
          "name": "shares",
          "type": "uint256"
        }
      ],
      "stateMutability": "nonpayable",
      "type": "function"
    },
    {
      "inputs": [
        {
          "internalType": "address",
          "name": "",
          "type": "address"
        }
      ],
      "name": "balanceOf",
      "outputs": [
        {
          "internalType": "uint256",
          "name": "",
          "type": "uint256"
        }
      ],
      "stateMutability": "view",
      "type": "function"
    },
    {
      "inputs": [
        {
          "internalType": "address",
          "name": "_tokenIn",
          "type": "address"
        },
        {
          "internalType": "uint256",
          "name": "_amountIn",
          "type": "uint256"
        }
      ],
      "name": "calculateSwap",
      "outputs": [
        {
          "internalType": "uint256",
          "name": "amountOut",
          "type": "uint256"
        }
      ],
      "stateMutability": "view",
      "type": "function"
    },
    {
      "inputs": [
        {
          "internalType": "uint256",
          "name": "_shares",
          "type": "uint256"
        }
      ],
      "name": "removeLiquidity",
      "outputs": [
        {
          "internalType": "uint256",
          "name": "amountOne",
          "type": "uint256"
        },
        {
          "internalType": "uint256",
          "name": "amountTwo",
          "type": "uint256"
        }
      ],
      "stateMutability": "nonpayable",
      "type": "function"
    },
    {
      "inputs": [],
      "name": "reserveOne",
      "outputs": [
        {
          "internalType": "uint256",
          "name": "",
          "type": "uint256"
        }
      ],
      "stateMutability": "view",
      "type": "function"
    },
    {
      "inputs": [],
      "name": "reserveTwo",
      "outputs": [
        {
          "internalType": "uint256",
          "name": "",
          "type": "uint256"
        }
      ],
      "stateMutability": "view",
      "type": "function"
    },
    {
      "inputs": [
        {
          "internalType": "address",
          "name": "_tokenIn",
          "type": "address"
        },
        {
          "internalType": "uint256",
          "name": "_amountIn",
          "type": "uint256"
        }
      ],
      "name": "swap",
      "outputs": [
        {
          "internalType": "uint256",
          "name": "amountOut",
          "type": "uint256"
        }
      ],
      "stateMutability": "nonpayable",
      "type": "function"
    },
    {
      "inputs": [],
      "name": "tokenOne",
      "outputs": [
        {
          "internalType": "contract IERC20",
          "name": "",
          "type": "address"
        }
      ],
      "stateMutability": "view",
      "type": "function"
    },
    {
      "inputs": [],
      "name": "tokenTwo",
      "outputs": [
        {
          "internalType": "contract IERC20",
          "name": "",
          "type": "address"
        }
      ],
      "stateMutability": "view",
      "type": "function"
    },
    {
      "inputs": [],
      "name": "totalSupply",
      "outputs": [
        {
          "internalType": "uint256",
          "name": "",
          "type": "uint256"
        }
      ],
      "stateMutability": "view",
      "type": "function"
    }
  ],
  "bytecode": "0x60c06040523480156200001157600080fd5b5060405162001ab638038062001ab6833981810160405281019062000037919062000111565b8173ffffffffffffffffffffffffffffffffffffffff1660808173ffffffffffffffffffffffffffffffffffffffff16815250508073ffffffffffffffffffffffffffffffffffffffff1660a08173ffffffffffffffffffffffffffffffffffffffff1681525050505062000158565b600080fd5b600073ffffffffffffffffffffffffffffffffffffffff82169050919050565b6000620000d982620000ac565b9050919050565b620000eb81620000cc565b8114620000f757600080fd5b50565b6000815190506200010b81620000e0565b92915050565b600080604083850312156200012b576200012a620000a7565b5b60006200013b85828601620000fa565b92505060206200014e85828601620000fa565b9150509250929050565b60805160a0516118ac6200020a60003960008181610289015281816104da015281816106c40152818161080d01528181610a7201528181610b9801528181610cc801528181610d3601528181610f460152610ff10152600081816102340152818161035d0152818161043c015281816106250152818161076c015281816109d801528181610b1d01528181610b4301528181610c6c01528181610ce901528181610d150152610eac01526118ac6000f3fe608060405234801561001057600080fd5b506004361061009e5760003560e01c80639cd441da116100665780639cd441da14610170578063adc18b50146101a0578063c1e287a9146101be578063d004f0f7146101dc578063e7d189021461020c5761009e565b806318160ddd146100a35780631de8d8cb146100c15780632bd1df84146100f157806370a082311461010f5780639c8f9f231461013f575b600080fd5b6100ab61022a565b6040516100b891906111b8565b60405180910390f35b6100db60048036038101906100d69190611262565b610230565b6040516100e891906111b8565b60405180910390f35b6100f9610417565b60405161010691906111b8565b60405180910390f35b610129600480360381019061012491906112a2565b61041d565b60405161013691906111b8565b60405180910390f35b610159600480360381019061015491906112cf565b610435565b6040516101679291906112fc565b60405180910390f35b61018a60048036038101906101859190611325565b610768565b60405161019791906111b8565b60405180910390f35b6101a8610b15565b6040516101b591906111b8565b60405180910390f35b6101c6610b1b565b6040516101d391906113c4565b60405180910390f35b6101f660048036038101906101f19190611262565b610b3f565b60405161020391906111b8565b60405180910390f35b610214610fef565b60405161022191906113c4565b60405180910390f35b60025481565b60007f000000000000000000000000000000000000000000000000000000000000000073ffffffffffffffffffffffffffffffffffffffff168373ffffffffffffffffffffffffffffffffffffffff1614806102d757507f000000000000000000000000000000000000000000000000000000000000000073ffffffffffffffffffffffffffffffffffffffff168373ffffffffffffffffffffffffffffffffffffffff16145b610316576040517f08c379a000000000000000000000000000000000000000000000000000000000815260040161030d9061143c565b60405180910390fd5b60008211610359576040517f08c379a0000000000000000000000000000000000000000000000000000000008152600401610350906114a8565b60405180910390fd5b60007f000000000000000000000000000000000000000000000000000000000000000073ffffffffffffffffffffffffffffffffffffffff168473ffffffffffffffffffffffffffffffffffffffff16149050600080826103bf576001546000546103c6565b6000546001545b9150915060006103e86103e5876103dd91906114f7565b6103e79190611568565b905080836103f59190611599565b818361040191906114f7565b61040b9190611568565b94505050505092915050565b60015481565b60036020528060005260406000206000915090505481565b60008060007f000000000000000000000000000000000000000000000000000000000000000073ffffffffffffffffffffffffffffffffffffffff166370a08231306040518263ffffffff1660e01b815260040161049391906115dc565b602060405180830381865afa1580156104b0573d6000803e3d6000fd5b505050506040513d601f19601f820116820180604052508101906104d4919061160c565b905060007f000000000000000000000000000000000000000000000000000000000000000073ffffffffffffffffffffffffffffffffffffffff166370a08231306040518263ffffffff1660e01b815260040161053191906115dc565b602060405180830381865afa15801561054e573d6000803e3d6000fd5b505050506040513d601f19601f82011682018060405250810190610572919061160c565b9050600254828661058391906114f7565b61058d9190611568565b9350600254818661059e91906114f7565b6105a89190611568565b92506000841180156105ba5750600083115b6105f9576040517f08c379a00000000000000000000000000000000000000000000000000000000081526004016105f090611685565b60405180910390fd5b6106033386611013565b610623848361061291906116a5565b848361061e91906116a5565b611086565b7f000000000000000000000000000000000000000000000000000000000000000073ffffffffffffffffffffffffffffffffffffffff1663a9059cbb33866040518363ffffffff1660e01b815260040161067e9291906116d9565b6020604051808303816000875af115801561069d573d6000803e3d6000fd5b505050506040513d601f19601f820116820180604052508101906106c1919061173a565b507f000000000000000000000000000000000000000000000000000000000000000073ffffffffffffffffffffffffffffffffffffffff1663a9059cbb33856040518363ffffffff1660e01b815260040161071d9291906116d9565b6020604051808303816000875af115801561073c573d6000803e3d6000fd5b505050506040513d601f19601f82011682018060405250810190610760919061173a565b505050915091565b60007f000000000000000000000000000000000000000000000000000000000000000073ffffffffffffffffffffffffffffffffffffffff166323b872dd3330866040518463ffffffff1660e01b81526004016107c793929190611767565b6020604051808303816000875af11580156107e6573d6000803e3d6000fd5b505050506040513d601f19601f8201168201806040525081019061080a919061173a565b507f000000000000000000000000000000000000000000000000000000000000000073ffffffffffffffffffffffffffffffffffffffff166323b872dd3330856040518463ffffffff1660e01b815260040161086893929190611767565b6020604051808303816000875af1158015610887573d6000803e3d6000fd5b505050506040513d601f19601f820116820180604052508101906108ab919061173a565b506000805411806108be57506000600154115b1561092057826001546108d191906114f7565b826000546108df91906114f7565b1461091f576040517f08c379a0000000000000000000000000000000000000000000000000000000008152600401610916906117ea565b60405180910390fd5b5b6000600254036109455761093e828461093991906114f7565b611098565b9050610986565b6109836000546002548561095991906114f7565b6109639190611568565b6001546002548561097491906114f7565b61097e9190611568565b611112565b90505b600081116109c9576040517f08c379a00000000000000000000000000000000000000000000000000000000081526004016109c090611856565b60405180910390fd5b6109d3338261112c565b610b0f7f000000000000000000000000000000000000000000000000000000000000000073ffffffffffffffffffffffffffffffffffffffff166370a08231306040518263ffffffff1660e01b8152600401610a2f91906115dc565b602060405180830381865afa158015610a4c573d6000803e3d6000fd5b505050506040513d601f19601f82011682018060405250810190610a70919061160c565b7f000000000000000000000000000000000000000000000000000000000000000073ffffffffffffffffffffffffffffffffffffffff166370a08231306040518263ffffffff1660e01b8152600401610ac991906115dc565b602060405180830381865afa158015610ae6573d6000803e3d6000fd5b505050506040513d601f19601f82011682018060405250810190610b0a919061160c565b611086565b92915050565b60005481565b7f000000000000000000000000000000000000000000000000000000000000000081565b60007f000000000000000000000000000000000000000000000000000000000000000073ffffffffffffffffffffffffffffffffffffffff168373ffffffffffffffffffffffffffffffffffffffff161480610be657507f000000000000000000000000000000000000000000000000000000000000000073ffffffffffffffffffffffffffffffffffffffff168373ffffffffffffffffffffffffffffffffffffffff16145b610c25576040517f08c379a0000000000000000000000000000000000000000000000000000000008152600401610c1c9061143c565b60405180910390fd5b60008211610c68576040517f08c379a0000000000000000000000000000000000000000000000000000000008152600401610c5f906114a8565b60405180910390fd5b60007f000000000000000000000000000000000000000000000000000000000000000073ffffffffffffffffffffffffffffffffffffffff168473ffffffffffffffffffffffffffffffffffffffff1614905060008060008084610d13577f00000000000000000000000000000000000000000000000000000000000000007f0000000000000000000000000000000000000000000000000000000000000000600154600054610d5c565b7f00000000000000000000000000000000000000000000000000000000000000007f00000000000000000000000000000000000000000000000000000000000000006000546001545b93509350935093508373ffffffffffffffffffffffffffffffffffffffff166323b872dd33308a6040518463ffffffff1660e01b8152600401610da193929190611767565b6020604051808303816000875af1158015610dc0573d6000803e3d6000fd5b505050506040513d601f19601f82011682018060405250810190610de4919061173a565b5060006103e86103e589610df891906114f7565b610e029190611568565b90508083610e109190611599565b8183610e1c91906114f7565b610e269190611568565b96508373ffffffffffffffffffffffffffffffffffffffff1663a9059cbb33896040518363ffffffff1660e01b8152600401610e639291906116d9565b6020604051808303816000875af1158015610e82573d6000803e3d6000fd5b505050506040513d601f19601f82011682018060405250810190610ea6919061173a565b50610fe37f000000000000000000000000000000000000000000000000000000000000000073ffffffffffffffffffffffffffffffffffffffff166370a08231306040518263ffffffff1660e01b8152600401610f0391906115dc565b602060405180830381865afa158015610f20573d6000803e3d6000fd5b505050506040513d601f19601f82011682018060405250810190610f44919061160c565b7f000000000000000000000000000000000000000000000000000000000000000073ffffffffffffffffffffffffffffffffffffffff166370a08231306040518263ffffffff1660e01b8152600401610f9d91906115dc565b602060405180830381865afa158015610fba573d6000803e3d6000fd5b505050506040513d601f19601f82011682018060405250810190610fde919061160c565b611086565b50505050505092915050565b7f000000000000000000000000000000000000000000000000000000000000000081565b80600360008473ffffffffffffffffffffffffffffffffffffffff1673ffffffffffffffffffffffffffffffffffffffff168152602001908152602001600020600082825461106291906116a5565b92505081905550806002600082825461107b91906116a5565b925050819055505050565b81600081905550806001819055505050565b600060038211156110ff57819050600060016002846110b79190611568565b6110c19190611599565b90505b818110156110f95780915060028182856110de9190611568565b6110e89190611599565b6110f29190611568565b90506110c4565b5061110d565b6000821461110c57600190505b5b919050565b6000818311156111225781611124565b825b905092915050565b80600360008473ffffffffffffffffffffffffffffffffffffffff1673ffffffffffffffffffffffffffffffffffffffff168152602001908152602001600020600082825461117b9190611599565b9250508190555080600260008282546111949190611599565b925050819055505050565b6000819050919050565b6111b28161119f565b82525050565b60006020820190506111cd60008301846111a9565b92915050565b600080fd5b600073ffffffffffffffffffffffffffffffffffffffff82169050919050565b6000611203826111d8565b9050919050565b611213816111f8565b811461121e57600080fd5b50565b6000813590506112308161120a565b92915050565b61123f8161119f565b811461124a57600080fd5b50565b60008135905061125c81611236565b92915050565b60008060408385031215611279576112786111d3565b5b600061128785828601611221565b92505060206112988582860161124d565b9150509250929050565b6000602082840312156112b8576112b76111d3565b5b60006112c684828501611221565b91505092915050565b6000602082840312156112e5576112e46111d3565b5b60006112f38482850161124d565b91505092915050565b600060408201905061131160008301856111a9565b61131e60208301846111a9565b9392505050565b6000806040838503121561133c5761133b6111d3565b5b600061134a8582860161124d565b925050602061135b8582860161124d565b9150509250929050565b6000819050919050565b600061138a611385611380846111d8565b611365565b6111d8565b9050919050565b600061139c8261136f565b9050919050565b60006113ae82611391565b9050919050565b6113be816113a3565b82525050565b60006020820190506113d960008301846113b5565b92915050565b600082825260208201905092915050565b7f696e76616c696420746f6b656e00000000000000000000000000000000000000600082015250565b6000611426600d836113df565b9150611431826113f0565b602082019050919050565b6000602082019050818103600083015261145581611419565b9050919050565b7f616d6f756e7420696e203d203000000000000000000000000000000000000000600082015250565b6000611492600d836113df565b915061149d8261145c565b602082019050919050565b600060208201905081810360008301526114c181611485565b9050919050565b7f4e487b7100000000000000000000000000000000000000000000000000000000600052601160045260246000fd5b60006115028261119f565b915061150d8361119f565b925082820261151b8161119f565b91508282048414831517611532576115316114c8565b5b5092915050565b7f4e487b7100000000000000000000000000000000000000000000000000000000600052601260045260246000fd5b60006115738261119f565b915061157e8361119f565b92508261158e5761158d611539565b5b828204905092915050565b60006115a48261119f565b91506115af8361119f565b92508282019050808211156115c7576115c66114c8565b5b92915050565b6115d6816111f8565b82525050565b60006020820190506115f160008301846115cd565b92915050565b60008151905061160681611236565b92915050565b600060208284031215611622576116216111d3565b5b6000611630848285016115f7565b91505092915050565b7f616d6f756e744f6e65206f7220616d6f756e7454776f203d2030000000000000600082015250565b600061166f601a836113df565b915061167a82611639565b602082019050919050565b6000602082019050818103600083015261169e81611662565b9050919050565b60006116b08261119f565b91506116bb8361119f565b92508282039050818111156116d3576116d26114c8565b5b92915050565b60006040820190506116ee60008301856115cd565b6116fb60208301846111a9565b9392505050565b60008115159050919050565b61171781611702565b811461172257600080fd5b50565b6000815190506117348161170e565b92915050565b6000602082840312156117505761174f6111d3565b5b600061175e84828501611725565b91505092915050565b600060608201905061177c60008301866115cd565b61178960208301856115cd565b61179660408301846111a9565b949350505050565b7f78202f207920213d206478202f20647900000000000000000000000000000000600082015250565b60006117d46010836113df565b91506117df8261179e565b602082019050919050565b60006020820190508181036000830152611803816117c7565b9050919050565b7f736861726573203d203000000000000000000000000000000000000000000000600082015250565b6000611840600a836113df565b915061184b8261180a565b602082019050919050565b6000602082019050818103600083015261186f81611833565b905091905056fea2646970667358221220cc0e0b0e82a788f98f3bfaf7322da3c29bb342bba89612f86b687e4494d38c6464736f6c63430008140033",
  "linkReferences": {},
  "deployedLinkReferences": {}
}