{
  "_format": "hh-sol-artifact-1",
  "contractName": "AMM",
  "sourceName": "contracts/AMM.sol",
  "abi": [
    {
      "inputs": [
        {
          "internalType": "address",
          "name": "_tokenOne",
          "type": "address"
        },
        {
          "internalType": "address",
          "name": "_tokenTwo",
          "type": "address"
        }
      ],
      "stateMutability": "nonpayable",
      "type": "constructor"
    },
    {
      "anonymous": false,
      "inputs": [
        {
          "indexed": true,
          "internalType": "address",
          "name": "owner",
          "type": "address"
        },
        {
          "indexed": true,
          "internalType": "address",
          "name": "spender",
          "type": "address"
        },
        {
          "indexed": false,
          "internalType": "uint256",
          "name": "value",
          "type": "uint256"
        }
      ],
      "name": "Approval",
      "type": "event"
    },
    {
      "anonymous": false,
      "inputs": [
        {
          "indexed": true,
          "internalType": "address",
          "name": "from",
          "type": "address"
        },
        {
          "indexed": true,
          "internalType": "address",
          "name": "to",
          "type": "address"
        },
        {
          "indexed": false,
          "internalType": "uint256",
          "name": "value",
          "type": "uint256"
        }
      ],
      "name": "Transfer",
      "type": "event"
    },
    {
      "inputs": [
        {
          "internalType": "uint256",
          "name": "_amountOne",
          "type": "uint256"
        },
        {
          "internalType": "uint256",
          "name": "_amountTwo",
          "type": "uint256"
        }
      ],
      "name": "addLiquidity",
      "outputs": [
        {
          "internalType": "uint256",
          "name": "shares",
          "type": "uint256"
        }
      ],
      "stateMutability": "nonpayable",
      "type": "function"
    },
    {
      "inputs": [
        {
          "internalType": "address",
          "name": "",
          "type": "address"
        },
        {
          "internalType": "address",
          "name": "",
          "type": "address"
        }
      ],
      "name": "allowance",
      "outputs": [
        {
          "internalType": "uint256",
          "name": "",
          "type": "uint256"
        }
      ],
      "stateMutability": "view",
      "type": "function"
    },
    {
      "inputs": [
        {
          "internalType": "address",
          "name": "spender",
          "type": "address"
        },
        {
          "internalType": "uint256",
          "name": "amount",
          "type": "uint256"
        }
      ],
      "name": "approve",
      "outputs": [
        {
          "internalType": "bool",
          "name": "",
          "type": "bool"
        }
      ],
      "stateMutability": "nonpayable",
      "type": "function"
    },
    {
      "inputs": [
        {
          "internalType": "address",
          "name": "",
          "type": "address"
        }
      ],
      "name": "balanceOf",
      "outputs": [
        {
          "internalType": "uint256",
          "name": "",
          "type": "uint256"
        }
      ],
      "stateMutability": "view",
      "type": "function"
    },
    {
      "inputs": [
        {
          "internalType": "address",
          "name": "from",
          "type": "address"
        },
        {
          "internalType": "uint256",
          "name": "amount",
          "type": "uint256"
        }
      ],
      "name": "burn",
      "outputs": [],
      "stateMutability": "nonpayable",
      "type": "function"
    },
    {
      "inputs": [
        {
          "internalType": "address",
          "name": "_tokenIn",
          "type": "address"
        },
        {
          "internalType": "uint256",
          "name": "_amountIn",
          "type": "uint256"
        }
      ],
      "name": "calculateSwap",
      "outputs": [
        {
          "internalType": "uint256",
          "name": "amountOut",
          "type": "uint256"
        }
      ],
      "stateMutability": "view",
      "type": "function"
    },
    {
      "inputs": [],
      "name": "decimals",
      "outputs": [
        {
          "internalType": "uint8",
          "name": "",
          "type": "uint8"
        }
      ],
      "stateMutability": "view",
      "type": "function"
    },
    {
      "inputs": [
        {
          "internalType": "address",
          "name": "to",
          "type": "address"
        },
        {
          "internalType": "uint256",
          "name": "amount",
          "type": "uint256"
        }
      ],
      "name": "mint",
      "outputs": [],
      "stateMutability": "nonpayable",
      "type": "function"
    },
    {
      "inputs": [],
      "name": "name",
      "outputs": [
        {
          "internalType": "string",
          "name": "",
          "type": "string"
        }
      ],
      "stateMutability": "view",
      "type": "function"
    },
    {
      "inputs": [
        {
          "internalType": "uint256",
          "name": "_shares",
          "type": "uint256"
        }
      ],
      "name": "removeLiquidity",
      "outputs": [
        {
          "internalType": "uint256",
          "name": "amountOne",
          "type": "uint256"
        },
        {
          "internalType": "uint256",
          "name": "amountTwo",
          "type": "uint256"
        }
      ],
      "stateMutability": "nonpayable",
      "type": "function"
    },
    {
      "inputs": [],
      "name": "reserveOne",
      "outputs": [
        {
          "internalType": "uint256",
          "name": "",
          "type": "uint256"
        }
      ],
      "stateMutability": "view",
      "type": "function"
    },
    {
      "inputs": [],
      "name": "reserveTwo",
      "outputs": [
        {
          "internalType": "uint256",
          "name": "",
          "type": "uint256"
        }
      ],
      "stateMutability": "view",
      "type": "function"
    },
    {
      "inputs": [
        {
          "internalType": "address",
          "name": "_tokenIn",
          "type": "address"
        },
        {
          "internalType": "uint256",
          "name": "_amountIn",
          "type": "uint256"
        }
      ],
      "name": "swap",
      "outputs": [
        {
          "internalType": "uint256",
          "name": "amountOut",
          "type": "uint256"
        }
      ],
      "stateMutability": "nonpayable",
      "type": "function"
    },
    {
      "inputs": [],
      "name": "symbol",
      "outputs": [
        {
          "internalType": "string",
          "name": "",
          "type": "string"
        }
      ],
      "stateMutability": "view",
      "type": "function"
    },
    {
      "inputs": [],
      "name": "tokenOne",
      "outputs": [
        {
          "internalType": "contract IERC20",
          "name": "",
          "type": "address"
        }
      ],
      "stateMutability": "view",
      "type": "function"
    },
    {
      "inputs": [],
      "name": "tokenTwo",
      "outputs": [
        {
          "internalType": "contract IERC20",
          "name": "",
          "type": "address"
        }
      ],
      "stateMutability": "view",
      "type": "function"
    },
    {
      "inputs": [],
      "name": "totalSupply",
      "outputs": [
        {
          "internalType": "uint256",
          "name": "",
          "type": "uint256"
        }
      ],
      "stateMutability": "view",
      "type": "function"
    },
    {
      "inputs": [
        {
          "internalType": "address",
          "name": "recipient",
          "type": "address"
        },
        {
          "internalType": "uint256",
          "name": "amount",
          "type": "uint256"
        }
      ],
      "name": "transfer",
      "outputs": [
        {
          "internalType": "bool",
          "name": "",
          "type": "bool"
        }
      ],
      "stateMutability": "nonpayable",
      "type": "function"
    },
    {
      "inputs": [
        {
          "internalType": "address",
          "name": "sender",
          "type": "address"
        },
        {
          "internalType": "address",
          "name": "recipient",
          "type": "address"
        },
        {
          "internalType": "uint256",
          "name": "amount",
          "type": "uint256"
        }
      ],
      "name": "transferFrom",
      "outputs": [
        {
          "internalType": "bool",
          "name": "",
          "type": "bool"
        }
      ],
      "stateMutability": "nonpayable",
      "type": "function"
    }
  ],
  "bytecode": "0x60c06040523480156200001157600080fd5b50604051620027aa380380620027aa8339818101604052810190620000379190620001c1565b6040518060400160405280601781526020017f34333030204c69717569646974792050726f76696465720000000000000000008152506040518060400160405280600781526020017f343330304c50540000000000000000000000000000000000000000000000000081525060128260039081620000b6919062000482565b508160049081620000c8919062000482565b5080600560006101000a81548160ff021916908360ff1602179055505050508173ffffffffffffffffffffffffffffffffffffffff1660808173ffffffffffffffffffffffffffffffffffffffff16815250508073ffffffffffffffffffffffffffffffffffffffff1660a08173ffffffffffffffffffffffffffffffffffffffff1681525050505062000569565b600080fd5b600073ffffffffffffffffffffffffffffffffffffffff82169050919050565b600062000189826200015c565b9050919050565b6200019b816200017c565b8114620001a757600080fd5b50565b600081519050620001bb8162000190565b92915050565b60008060408385031215620001db57620001da62000157565b5b6000620001eb85828601620001aa565b9250506020620001fe85828601620001aa565b9150509250929050565b600081519050919050565b7f4e487b7100000000000000000000000000000000000000000000000000000000600052604160045260246000fd5b7f4e487b7100000000000000000000000000000000000000000000000000000000600052602260045260246000fd5b600060028204905060018216806200028a57607f821691505b602082108103620002a0576200029f62000242565b5b50919050565b60008190508160005260206000209050919050565b60006020601f8301049050919050565b600082821b905092915050565b6000600883026200030a7fffffffffffffffffffffffffffffffffffffffffffffffffffffffffffffffff82620002cb565b620003168683620002cb565b95508019841693508086168417925050509392505050565b6000819050919050565b6000819050919050565b6000620003636200035d62000357846200032e565b62000338565b6200032e565b9050919050565b6000819050919050565b6200037f8362000342565b620003976200038e826200036a565b848454620002d8565b825550505050565b600090565b620003ae6200039f565b620003bb81848462000374565b505050565b5b81811015620003e357620003d7600082620003a4565b600181019050620003c1565b5050565b601f8211156200043257620003fc81620002a6565b6200040784620002bb565b8101602085101562000417578190505b6200042f6200042685620002bb565b830182620003c0565b50505b505050565b600082821c905092915050565b6000620004576000198460080262000437565b1980831691505092915050565b600062000472838362000444565b9150826002028217905092915050565b6200048d8262000208565b67ffffffffffffffff811115620004a957620004a862000213565b5b620004b5825462000271565b620004c2828285620003e7565b600060209050601f831160018114620004fa5760008415620004e5578287015190505b620004f1858262000464565b86555062000561565b601f1984166200050a86620002a6565b60005b8281101562000534578489015182556001820191506020850194506020810190506200050d565b8683101562000554578489015162000550601f89168262000444565b8355505b6001600288020188555050505b505050505050565b60805160a05161218f6200061b600039600081816105de01528181610a8f01528181610c7901528181610dc201528181610fb20152818161120301528181611333015281816113a1015281816115b10152611681015260008181610589015281816106b2015281816109f101528181610bda01528181610d2101528181610f1801528181611188015281816111ae015281816112d701528181611354015281816113800152611517015261218f6000f3fe608060405234801561001057600080fd5b50600436106101215760003560e01c806395d89b41116100ad578063adc18b5011610071578063adc18b5014610345578063c1e287a914610363578063d004f0f714610381578063dd62ed3e146103b1578063e7d18902146103e157610121565b806395d89b411461027a5780639c8f9f23146102985780639cd441da146102c95780639dc29fac146102f9578063a9059cbb1461031557610121565b806323b872dd116100f457806323b872dd146101c25780632bd1df84146101f2578063313ce5671461021057806340c10f191461022e57806370a082311461024a57610121565b806306fdde0314610126578063095ea7b31461014457806318160ddd146101745780631de8d8cb14610192575b600080fd5b61012e6103ff565b60405161013b9190611989565b60405180910390f35b61015e60048036038101906101599190611a44565b61048d565b60405161016b9190611a9f565b60405180910390f35b61017c61057f565b6040516101899190611ac9565b60405180910390f35b6101ac60048036038101906101a79190611a44565b610585565b6040516101b99190611ac9565b60405180910390f35b6101dc60048036038101906101d79190611ae4565b61076c565b6040516101e99190611a9f565b60405180910390f35b6101fa61091d565b6040516102079190611ac9565b60405180910390f35b610218610923565b6040516102259190611b53565b60405180910390f35b61024860048036038101906102439190611a44565b610936565b005b610264600480360381019061025f9190611b6e565b610944565b6040516102719190611ac9565b60405180910390f35b61028261095c565b60405161028f9190611989565b60405180910390f35b6102b260048036038101906102ad9190611b9b565b6109ea565b6040516102c0929190611bc8565b60405180910390f35b6102e360048036038101906102de9190611bf1565b610d1d565b6040516102f09190611ac9565b60405180910390f35b610313600480360381019061030e9190611a44565b611055565b005b61032f600480360381019061032a9190611a44565b611063565b60405161033c9190611a9f565b60405180910390f35b61034d611180565b60405161035a9190611ac9565b60405180910390f35b61036b611186565b6040516103789190611c90565b60405180910390f35b61039b60048036038101906103969190611a44565b6111aa565b6040516103a89190611ac9565b60405180910390f35b6103cb60048036038101906103c69190611cab565b61165a565b6040516103d89190611ac9565b60405180910390f35b6103e961167f565b6040516103f69190611c90565b60405180910390f35b6003805461040c90611d1a565b80601f016020809104026020016040519081016040528092919081815260200182805461043890611d1a565b80156104855780601f1061045a57610100808354040283529160200191610485565b820191906000526020600020905b81548152906001019060200180831161046857829003601f168201915b505050505081565b600081600260003373ffffffffffffffffffffffffffffffffffffffff1673ffffffffffffffffffffffffffffffffffffffff16815260200190815260200160002060008573ffffffffffffffffffffffffffffffffffffffff1673ffffffffffffffffffffffffffffffffffffffff168152602001908152602001600020819055508273ffffffffffffffffffffffffffffffffffffffff163373ffffffffffffffffffffffffffffffffffffffff167f8c5be1e5ebec7d5bd14f71427d1e84f3dd0314c0f7b2291e5b200ac8c7c3b9258460405161056d9190611ac9565b60405180910390a36001905092915050565b60005481565b60007f000000000000000000000000000000000000000000000000000000000000000073ffffffffffffffffffffffffffffffffffffffff168373ffffffffffffffffffffffffffffffffffffffff16148061062c57507f000000000000000000000000000000000000000000000000000000000000000073ffffffffffffffffffffffffffffffffffffffff168373ffffffffffffffffffffffffffffffffffffffff16145b61066b576040517f08c379a000000000000000000000000000000000000000000000000000000000815260040161066290611d97565b60405180910390fd5b600082116106ae576040517f08c379a00000000000000000000000000000000000000000000000000000000081526004016106a590611e03565b60405180910390fd5b60007f000000000000000000000000000000000000000000000000000000000000000073ffffffffffffffffffffffffffffffffffffffff168473ffffffffffffffffffffffffffffffffffffffff16149050600080826107145760075460065461071b565b6006546007545b9150915060006103e86103e5876107329190611e52565b61073c9190611ec3565b9050808361074a9190611ef4565b81836107569190611e52565b6107609190611ec3565b94505050505092915050565b600081600260008673ffffffffffffffffffffffffffffffffffffffff1673ffffffffffffffffffffffffffffffffffffffff16815260200190815260200160002060003373ffffffffffffffffffffffffffffffffffffffff1673ffffffffffffffffffffffffffffffffffffffff16815260200190815260200160002060008282546107fa9190611f28565b9250508190555081600160008673ffffffffffffffffffffffffffffffffffffffff1673ffffffffffffffffffffffffffffffffffffffff16815260200190815260200160002060008282546108509190611f28565b9250508190555081600160008573ffffffffffffffffffffffffffffffffffffffff1673ffffffffffffffffffffffffffffffffffffffff16815260200190815260200160002060008282546108a69190611ef4565b925050819055508273ffffffffffffffffffffffffffffffffffffffff168473ffffffffffffffffffffffffffffffffffffffff167fddf252ad1be2c89b69c2b068fc378daa952ba7f163c4a11628f55a4df523b3ef8460405161090a9190611ac9565b60405180910390a3600190509392505050565b60075481565b600560009054906101000a900460ff1681565b61094082826116a3565b5050565b60016020528060005260406000206000915090505481565b6004805461096990611d1a565b80601f016020809104026020016040519081016040528092919081815260200182805461099590611d1a565b80156109e25780601f106109b7576101008083540402835291602001916109e2565b820191906000526020600020905b8154815290600101906020018083116109c557829003601f168201915b505050505081565b60008060007f000000000000000000000000000000000000000000000000000000000000000073ffffffffffffffffffffffffffffffffffffffff166370a08231306040518263ffffffff1660e01b8152600401610a489190611f6b565b602060405180830381865afa158015610a65573d6000803e3d6000fd5b505050506040513d601f19601f82011682018060405250810190610a899190611f9b565b905060007f000000000000000000000000000000000000000000000000000000000000000073ffffffffffffffffffffffffffffffffffffffff166370a08231306040518263ffffffff1660e01b8152600401610ae69190611f6b565b602060405180830381865afa158015610b03573d6000803e3d6000fd5b505050506040513d601f19601f82011682018060405250810190610b279190611f9b565b90506000548286610b389190611e52565b610b429190611ec3565b93506000548186610b539190611e52565b610b5d9190611ec3565b9250600084118015610b6f5750600083115b610bae576040517f08c379a0000000000000000000000000000000000000000000000000000000008152600401610ba590612014565b60405180910390fd5b610bb8338661177b565b610bd88483610bc79190611f28565b8483610bd39190611f28565b611853565b7f000000000000000000000000000000000000000000000000000000000000000073ffffffffffffffffffffffffffffffffffffffff1663a9059cbb33866040518363ffffffff1660e01b8152600401610c33929190612034565b6020604051808303816000875af1158015610c52573d6000803e3d6000fd5b505050506040513d601f19601f82011682018060405250810190610c769190612089565b507f000000000000000000000000000000000000000000000000000000000000000073ffffffffffffffffffffffffffffffffffffffff1663a9059cbb33856040518363ffffffff1660e01b8152600401610cd2929190612034565b6020604051808303816000875af1158015610cf1573d6000803e3d6000fd5b505050506040513d601f19601f82011682018060405250810190610d159190612089565b505050915091565b60007f000000000000000000000000000000000000000000000000000000000000000073ffffffffffffffffffffffffffffffffffffffff166323b872dd3330866040518463ffffffff1660e01b8152600401610d7c939291906120b6565b6020604051808303816000875af1158015610d9b573d6000803e3d6000fd5b505050506040513d601f19601f82011682018060405250810190610dbf9190612089565b507f000000000000000000000000000000000000000000000000000000000000000073ffffffffffffffffffffffffffffffffffffffff166323b872dd3330856040518463ffffffff1660e01b8152600401610e1d939291906120b6565b6020604051808303816000875af1158015610e3c573d6000803e3d6000fd5b505050506040513d601f19601f82011682018060405250810190610e609190612089565b506000805403610e8557610e7e8284610e799190611e52565b611865565b9050610ec6565b610ec360065460005485610e999190611e52565b610ea39190611ec3565b60075460005485610eb49190611e52565b610ebe9190611ec3565b6118df565b90505b60008111610f09576040517f08c379a0000000000000000000000000000000000000000000000000000000008152600401610f0090612139565b60405180910390fd5b610f1333826116a3565b61104f7f000000000000000000000000000000000000000000000000000000000000000073ffffffffffffffffffffffffffffffffffffffff166370a08231306040518263ffffffff1660e01b8152600401610f6f9190611f6b565b602060405180830381865afa158015610f8c573d6000803e3d6000fd5b505050506040513d601f19601f82011682018060405250810190610fb09190611f9b565b7f000000000000000000000000000000000000000000000000000000000000000073ffffffffffffffffffffffffffffffffffffffff166370a08231306040518263ffffffff1660e01b81526004016110099190611f6b565b602060405180830381865afa158015611026573d6000803e3d6000fd5b505050506040513d601f19601f8201168201806040525081019061104a9190611f9b565b611853565b92915050565b61105f828261177b565b5050565b600081600160003373ffffffffffffffffffffffffffffffffffffffff1673ffffffffffffffffffffffffffffffffffffffff16815260200190815260200160002060008282546110b49190611f28565b9250508190555081600160008573ffffffffffffffffffffffffffffffffffffffff1673ffffffffffffffffffffffffffffffffffffffff168152602001908152602001600020600082825461110a9190611ef4565b925050819055508273ffffffffffffffffffffffffffffffffffffffff163373ffffffffffffffffffffffffffffffffffffffff167fddf252ad1be2c89b69c2b068fc378daa952ba7f163c4a11628f55a4df523b3ef8460405161116e9190611ac9565b60405180910390a36001905092915050565b60065481565b7f000000000000000000000000000000000000000000000000000000000000000081565b60007f000000000000000000000000000000000000000000000000000000000000000073ffffffffffffffffffffffffffffffffffffffff168373ffffffffffffffffffffffffffffffffffffffff16148061125157507f000000000000000000000000000000000000000000000000000000000000000073ffffffffffffffffffffffffffffffffffffffff168373ffffffffffffffffffffffffffffffffffffffff16145b611290576040517f08c379a000000000000000000000000000000000000000000000000000000000815260040161128790611d97565b60405180910390fd5b600082116112d3576040517f08c379a00000000000000000000000000000000000000000000000000000000081526004016112ca90611e03565b60405180910390fd5b60007f000000000000000000000000000000000000000000000000000000000000000073ffffffffffffffffffffffffffffffffffffffff168473ffffffffffffffffffffffffffffffffffffffff161490506000806000808461137e577f00000000000000000000000000000000000000000000000000000000000000007f00000000000000000000000000000000000000000000000000000000000000006007546006546113c7565b7f00000000000000000000000000000000000000000000000000000000000000007f00000000000000000000000000000000000000000000000000000000000000006006546007545b93509350935093508373ffffffffffffffffffffffffffffffffffffffff166323b872dd33308a6040518463ffffffff1660e01b815260040161140c939291906120b6565b6020604051808303816000875af115801561142b573d6000803e3d6000fd5b505050506040513d601f19601f8201168201806040525081019061144f9190612089565b5060006103e86103e5896114639190611e52565b61146d9190611ec3565b9050808361147b9190611ef4565b81836114879190611e52565b6114919190611ec3565b96508373ffffffffffffffffffffffffffffffffffffffff1663a9059cbb33896040518363ffffffff1660e01b81526004016114ce929190612034565b6020604051808303816000875af11580156114ed573d6000803e3d6000fd5b505050506040513d601f19601f820116820180604052508101906115119190612089565b5061164e7f000000000000000000000000000000000000000000000000000000000000000073ffffffffffffffffffffffffffffffffffffffff166370a08231306040518263ffffffff1660e01b815260040161156e9190611f6b565b602060405180830381865afa15801561158b573d6000803e3d6000fd5b505050506040513d601f19601f820116820180604052508101906115af9190611f9b565b7f000000000000000000000000000000000000000000000000000000000000000073ffffffffffffffffffffffffffffffffffffffff166370a08231306040518263ffffffff1660e01b81526004016116089190611f6b565b602060405180830381865afa158015611625573d6000803e3d6000fd5b505050506040513d601f19601f820116820180604052508101906116499190611f9b565b611853565b50505050505092915050565b6002602052816000526040600020602052806000526040600020600091509150505481565b7f000000000000000000000000000000000000000000000000000000000000000081565b80600160008473ffffffffffffffffffffffffffffffffffffffff1673ffffffffffffffffffffffffffffffffffffffff16815260200190815260200160002060008282546116f29190611ef4565b925050819055508060008082825461170a9190611ef4565b925050819055508173ffffffffffffffffffffffffffffffffffffffff16600073ffffffffffffffffffffffffffffffffffffffff167fddf252ad1be2c89b69c2b068fc378daa952ba7f163c4a11628f55a4df523b3ef8360405161176f9190611ac9565b60405180910390a35050565b80600160008473ffffffffffffffffffffffffffffffffffffffff1673ffffffffffffffffffffffffffffffffffffffff16815260200190815260200160002060008282546117ca9190611f28565b92505081905550806000808282546117e29190611f28565b92505081905550600073ffffffffffffffffffffffffffffffffffffffff168273ffffffffffffffffffffffffffffffffffffffff167fddf252ad1be2c89b69c2b068fc378daa952ba7f163c4a11628f55a4df523b3ef836040516118479190611ac9565b60405180910390a35050565b81600681905550806007819055505050565b600060038211156118cc57819050600060016002846118849190611ec3565b61188e9190611ef4565b90505b818110156118c65780915060028182856118ab9190611ec3565b6118b59190611ef4565b6118bf9190611ec3565b9050611891565b506118da565b600082146118d957600190505b5b919050565b6000818311156118ef57816118f1565b825b905092915050565b600081519050919050565b600082825260208201905092915050565b60005b83811015611933578082015181840152602081019050611918565b60008484015250505050565b6000601f19601f8301169050919050565b600061195b826118f9565b6119658185611904565b9350611975818560208601611915565b61197e8161193f565b840191505092915050565b600060208201905081810360008301526119a38184611950565b905092915050565b600080fd5b600073ffffffffffffffffffffffffffffffffffffffff82169050919050565b60006119db826119b0565b9050919050565b6119eb816119d0565b81146119f657600080fd5b50565b600081359050611a08816119e2565b92915050565b6000819050919050565b611a2181611a0e565b8114611a2c57600080fd5b50565b600081359050611a3e81611a18565b92915050565b60008060408385031215611a5b57611a5a6119ab565b5b6000611a69858286016119f9565b9250506020611a7a85828601611a2f565b9150509250929050565b60008115159050919050565b611a9981611a84565b82525050565b6000602082019050611ab46000830184611a90565b92915050565b611ac381611a0e565b82525050565b6000602082019050611ade6000830184611aba565b92915050565b600080600060608486031215611afd57611afc6119ab565b5b6000611b0b868287016119f9565b9350506020611b1c868287016119f9565b9250506040611b2d86828701611a2f565b9150509250925092565b600060ff82169050919050565b611b4d81611b37565b82525050565b6000602082019050611b686000830184611b44565b92915050565b600060208284031215611b8457611b836119ab565b5b6000611b92848285016119f9565b91505092915050565b600060208284031215611bb157611bb06119ab565b5b6000611bbf84828501611a2f565b91505092915050565b6000604082019050611bdd6000830185611aba565b611bea6020830184611aba565b9392505050565b60008060408385031215611c0857611c076119ab565b5b6000611c1685828601611a2f565b9250506020611c2785828601611a2f565b9150509250929050565b6000819050919050565b6000611c56611c51611c4c846119b0565b611c31565b6119b0565b9050919050565b6000611c6882611c3b565b9050919050565b6000611c7a82611c5d565b9050919050565b611c8a81611c6f565b82525050565b6000602082019050611ca56000830184611c81565b92915050565b60008060408385031215611cc257611cc16119ab565b5b6000611cd0858286016119f9565b9250506020611ce1858286016119f9565b9150509250929050565b7f4e487b7100000000000000000000000000000000000000000000000000000000600052602260045260246000fd5b60006002820490506001821680611d3257607f821691505b602082108103611d4557611d44611ceb565b5b50919050565b7f696e76616c696420746f6b656e00000000000000000000000000000000000000600082015250565b6000611d81600d83611904565b9150611d8c82611d4b565b602082019050919050565b60006020820190508181036000830152611db081611d74565b9050919050565b7f616d6f756e7420696e203d203000000000000000000000000000000000000000600082015250565b6000611ded600d83611904565b9150611df882611db7565b602082019050919050565b60006020820190508181036000830152611e1c81611de0565b9050919050565b7f4e487b7100000000000000000000000000000000000000000000000000000000600052601160045260246000fd5b6000611e5d82611a0e565b9150611e6883611a0e565b9250828202611e7681611a0e565b91508282048414831517611e8d57611e8c611e23565b5b5092915050565b7f4e487b7100000000000000000000000000000000000000000000000000000000600052601260045260246000fd5b6000611ece82611a0e565b9150611ed983611a0e565b925082611ee957611ee8611e94565b5b828204905092915050565b6000611eff82611a0e565b9150611f0a83611a0e565b9250828201905080821115611f2257611f21611e23565b5b92915050565b6000611f3382611a0e565b9150611f3e83611a0e565b9250828203905081811115611f5657611f55611e23565b5b92915050565b611f65816119d0565b82525050565b6000602082019050611f806000830184611f5c565b92915050565b600081519050611f9581611a18565b92915050565b600060208284031215611fb157611fb06119ab565b5b6000611fbf84828501611f86565b91505092915050565b7f616d6f756e744f6e65206f7220616d6f756e7454776f203d2030000000000000600082015250565b6000611ffe601a83611904565b915061200982611fc8565b602082019050919050565b6000602082019050818103600083015261202d81611ff1565b9050919050565b60006040820190506120496000830185611f5c565b6120566020830184611aba565b9392505050565b61206681611a84565b811461207157600080fd5b50565b6000815190506120838161205d565b92915050565b60006020828403121561209f5761209e6119ab565b5b60006120ad84828501612074565b91505092915050565b60006060820190506120cb6000830186611f5c565b6120d86020830185611f5c565b6120e56040830184611aba565b949350505050565b7f736861726573203d203000000000000000000000000000000000000000000000600082015250565b6000612123600a83611904565b915061212e826120ed565b602082019050919050565b6000602082019050818103600083015261215281612116565b905091905056fea2646970667358221220ae997de6e2941330a211280177a9fbd2dc846e79ebe65d97455f9c3b6673465564736f6c63430008140033",
  "linkReferences": {},
  "deployedLinkReferences": {}
}